000Yoki Distribuidora de Alimentos LtdPELOG TRANSPORTES LTDA EPP         5714488304  
50063490804      
501Yoki Distribuidora de Alimentos Ltd               13143802000100241130114111                                 Av. Dr. Antonio Joao Abdalla, bloco 300, modulo B,Empresarial Colina                 Cajamar                            07750020          SP       
503MERCADINHO ALVES & FARIAS LTDA                    01444210000999373162388110                  R MAGALI WESSEL,25                                Empresarial Colina                 ITAPEVI                            06660750 3522505  SP                                                  1
5051  00014000606042021DIVERSOS       VOLUME         BR0505 123C06042021          N0N0000  N                                                                                                                006042021000000000000000000000000035210413143802000100550010001400061188652910
5060000500000034842800033708000000000000000000000NN000000000000000000000000263854000000000000000000000000000000000000000000000000000000000000000000000000000000000000000000000000000000000000000000000000000000000000000000000000000000000000000000000000000000000000000000000000000000000000000000000000000000000000000000
5070000500000034842800000000000000000000000000000015283000000000000000000000000000000000000000000000000000000000000000000000000000000000000000000000000000000000000000000000000000000000000000000000000000000000000000000000000002000000000000000000000000000000000000000000000000000000000000000000000000000000000000000000000
51100000100FD             000000007130015608  ALECRIM DESIDRATADO 24X6G                         
51100000200FD             000000007130001160  AMENDOIM 12X500G                                  
51100000100CX             000000007130003111  BATATA PALHA TRADICIONAL 20X105G                  
51100000300CX             000000007130001070  ALIMENTO COM SOJA LARANJA 12X1L                   
51100000100CX             000000007130015475  BICARBONAT.DE SODIO 24X80G                        
51100000100FD             000000007130000029  CANJICA CRISTAL 12X500G                           
51100000100CX             000000007130002835  FARINHA DE AVEIA YOKI CX 12X170G                  
51100000200CX             000000007130001540  YOKLON FARINHA LACTEA 12X230 G                    
51100000100CX             000000007130000842  FARINHA MANDIOCA GROSSA 12X1KG                    
51100001500FD             000000007130000687  KIMILHO FLOCAO FD 12X500G                         
51100001000CX             000000007130000267  PIPOCA YOKI 24X500G                               
51100000300CX             000000007130000698  PIPOCA PREMIUM 24X500G                            
51100000200CX             000000007130015406  OREGANO 24X10G                                    
51100000100CX             000000007130015402  PIMENTA E COMINHO 24X70G                          
51100000300CX             000000007130015950  TEMPERO BAIANO KITAN CX 24X40G                    
51100000100CX             000000007130000613  MAIS SABOR AVES 48X60G                            
51100000100CX             000000007130000615  MAIS SABOR CARNES 48X60G                          
51100000100CX             000000007130001188  MAIS SABOR NORDESTINO 24X60G                      
503MERCADINHO ALVES & FARIAS LTDA                    01444210000808492860404116                  PC DICRAN ECHREFIAN,12                            Empresarial Colina                 OSASCO                             06210010 3534401  SP                                                  1
5051  00014000706042021DIVERSOS       VOLUME         BR0505 123C06042021          N0N0000  N                                                                                                                006042021000000000000000000000000035210413143802000100550010001400071464303900
5060001050000053751600051049600000000000000000000NN000000000000000000000000502805000000000000000000000000000000000000000000000000000000000000000000000000000000000000000000000000000000000000000000000000000000000000000000000000000000000000000000000000000000000000000000000000000000000000000000000000000000000000000000
5070001050000053751600000000000000000000000000000023577000000000000000000000000000000000000000000000000000000000000000000000000000000000000000000000000000000000000000000000000000000000000000000000000000000000000000000000000002000000000000000000000000000000000000000000000000000000000000000000000000000000000000000000000
51100000400CX             000000007130000214  AMENDOIM DESC SALGADO 12X150G                     
51100000100FD             000000007130001160  AMENDOIM 12X500G                                  
51100000200CX             000000007130000216  AMENDOIM DOCE PRALINE 12X150G                     
51100000100CX             000000007130002833  AVEIA FLOCOS FINOS YOKI CX 12X170G                
51100000200CX             000000007130002834  AVEIA FLOCOS YOKI CX 12X170G                      
51100000100FD             000000007130000666  AVEIA FLOCOS YOKI 12X500G                         
51100000800CX             000000007130003111  BATATA PALHA TRADICIONAL 20X105G                  
51100000500CX             000000007130001370  ALIMENTO SOJA SABOR MARACUJA 12X1L                
51100000100CX             000000007130015475  BICARBONAT.DE SODIO 24X80G                        
51100000200FD             000000007130015429  CANELA EM CASCA 24X8G                             
51100000200CX             000000007130015407  CANELA EM PO 24X50G                               
51100000100FD             000000007130000029  CANJICA CRISTAL 12X500G                           
51100000300FD             000000007130015420  COLORIFICO 24X20G                                 
51100000100CX             000000007130015410  COLORIFICO 24X80G.                                
51100000100FD             000000007130015423  COMINHO EM PO 24X8G                               
51100000200FD             000000007130015428  CRAVO DA INDIA 24X8G                              
51100000200FD             000000007130000036  ERVILHA PARTIDA 12X500G                           
51100000300CX             000000007130002835  FARINHA DE AVEIA YOKI CX 12X170G                  
51100000100CX             000000007130001540  YOKLON FARINHA LACTEA 12X230 G                    
51100000100FD             000000007130000042  FARINHA DE ROSCA 24X500G                          
51100000300CX             000000007130003006  FAROFA SOJA 12X200G                               
51100002500FD             000000007130000687  KIMILHO FLOCAO FD 12X500G                         
51100000100FD             000000007130015430  FOLHA DE LOURO 24X4G                              
51100000300FD             000000007130000046  FUBA MIMOSO 12X1KG                                
51100000100FD             000000007130000045  FUBA MIMOSO 24X500G                               
51100000100CX             000000007130002933  GOMA DE TAPIOCA 20X500G                           
51100000100CX             000000007130001529  POPCORN MICRO COBERT CARAMELO 30X160G             
51100000100CX             000000007130003020  POPCORN MICRO NATURAL SAL 36X90G                  
51100000100CX             000000007130000220  POPCORN MICRO COM SAL 36X100G                     
51100000200FD             000000007130000845  POPMICRO MANTEIGA CINEMA 36X100G                  
51100000100CX             000000007130000062  POPCORN MICRO NATURAL 36X100G                     
51100000500CX             000000007130000698  PIPOCA PREMIUM 24X500G                            
51100000300CX             000000007130015014  MOLHO SHOYU 12X150ML                              
51100000100CX             000000007130015012  MOLHO INGLES 12X150ML                             
51100000300CX             000000007130015406  OREGANO 24X10G                                    
51100000100FD             000000007130015421  PIMENTA REINO PRETA 24X15G                        
51100000100CX             000000007130015402  PIMENTA E COMINHO 24X70G                          
51100000200FD             000000007130000061  POLVILHO AZEDO 12X500G                            
51100000100CX             000000007130001083  PURE DE BATATA YOKI 24X180G                       
51100000200FD             000000007130000084  SAL MOIDO IODADO 12X1KG                           
51100000100FD             000000007130000064  TAPIOCA 12X500G                                   
51100000100CX             000000007130015950  TEMPERO BAIANO KITAN CX 24X40G                    
503MERCADINHO ALVES & FARIAS LTDA                    01444210000727492860399110                  R OSMAR DE SOUZA FERREIRA,484                     Empresarial Colina                 OSASCO                             06266120 3534401  SP                                                  1
5051  00014000806042021DIVERSOS       VOLUME         BR0505 123C06042021          N0N0000  N                                                                                                                006042021000000000000000000000000035210413143802000100550010001400081979927900
5060000570000031912500030752800000000000000000000NN000000000000000000000000260652000000000000000000000000000000000000000000000000000000000000000000000000000000000000000000000000000000000000000000000000000000000000000000000000000000000000000000000000000000000000000000000000000000000000000000000000000000000000000000
5070000570000031912500000000000000000000000000000013998000000000000000000000000000000000000000000000000000000000000000000000000000000000000000000000000000000000000000000000000000000000000000000000000000000000000000000000000002000000000000000000000000000000000000000000000000000000000000000000000000000000000000000000000
51100000100CX             000000007130000214  AMENDOIM DESC SALGADO 12X150G                     
51100000100CX             000000007130000215  AMENDOIM DESC TEMPERADO 12X150G                   
51100000100FD             000000007130001160  AMENDOIM 12X500G                                  
51100000100CX             000000007130003111  BATATA PALHA TRADICIONAL 20X105G                  
51100000100FD             000000007130015425  BICARBONATO 24X30G                                
51100000100CX             000000007130001515  CALDO DE GALINHA 40X114G                          
51100000100CX             000000007130002828  CALDO PO DE LEGUMES 24X37,5G                      
51100000100CX             000000007130015409  CANELA EM CASCA 24X20G                            
51100000100FD             000000007130015429  CANELA EM CASCA 24X8G                             
51100000300FD             000000007130000029  CANJICA CRISTAL 12X500G                           
51100000200CX             000000007130015410  COLORIFICO 24X80G.                                
51100000100FD             000000007130015423  COMINHO EM PO 24X8G                               
51100000200CX             000000007130000382  CREME DE CEBOLA 12X65G                            
51100000100CX             000000007130001540  YOKLON FARINHA LACTEA 12X230 G                    
51100000100CX             000000007130003006  FAROFA SOJA 12X200G                               
51100000100FD             000000007130000047  FEIJAO BRANCO 12X500G                             
51100001500FD             000000007130000687  KIMILHO FLOCAO FD 12X500G                         
51100000100FD             000000007130015430  FOLHA DE LOURO 24X4G                              
51100000100FD             000000007130000046  FUBA MIMOSO 12X1KG                                
51100000100FD             000000007130000045  FUBA MIMOSO 24X500G                               
51100000100FD             000000007130000018  FUBA PRE COZIDO FD 24X500G                        
51100000100CX             000000007130002933  GOMA DE TAPIOCA 20X500G                           
51100000100CX             000000007130001755  POPMICRO COBERTURA CHOCOLATE 30X160G              
51100000100CX             000000007130000016  POPCORN MICRO MANTEIGA 36X100G                    
51100000500CX             000000007130000698  PIPOCA PREMIUM 24X500G                            
51100000100CX             000000007130000982  PO SORVETE DE COCO 12X150G                        
51100000100CX             000000007130000991  PO SORVETE MORANGO 12X150G                        
51100000100FD             000000007130000084  SAL MOIDO IODADO 12X1KG                           
51100000100CX             000000007130000556  TEMPERO COMPLETO SEM PIMENTA 12X1KG               
51100000100CX             000000007130000554  TEMPERO COMPLETO COM PIMENTA 12X1KG               
51100000100CX             000000007130015950  TEMPERO BAIANO KITAN CX 24X40G                    
51100000100CX             000000007130015952  MAIS SABOR ARROZ BR CX 24X60G                     
51100000100CX             000000007130001345  MAIS SABOR GAUCHO 24X60G                          
51100000100CX             000000007130015001  ADOBO TEMP CHURRASCO 24X12G                       
51100000100FD             000000007130000075  TRIGO KIBE 12X500G                                
503MERCADINHO ALVES & FARIAS LTDA                    01444210000646255350255118                  AV INOCENCIO SERAFICO,1894                        Empresarial Colina                 CARAPICUIBA                        06380021 3510609  SP                                                  1
5051  00014000906042021DIVERSOS       VOLUME         BR0505 123C06042021          N0N0000  N                                                                                                                006042021000000000000000000000000035210413143802000100550010001400091089433278
5060000170000011044100010696400000000000000000000NN000000000000000000000000093302000000000000000000000000000000000000000000000000000000000000000000000000000000000000000000000000000000000000000000000000000000000000000000000000000000000000000000000000000000000000000000000000000000000000000000000000000000000000000000
5070000170000011044100000000000000000000000000000004844000000000000000000000000000000000000000000000000000000000000000000000000000000000000000000000000000000000000000000000000000000000000000000000000000000000000000000000000002000000000000000000000000000000000000000000000000000000000000000000000000000000000000000000000
51100000100CX             000000007130002933  GOMA DE TAPIOCA 20X500G                           
51100000100CX             000000007130000072  POPCORN MICRO BACON 36X100G                       
51100000200CX             000000007130000698  PIPOCA PREMIUM 24X500G                            
51100000100FD             000000007130001015  SAL GROSSO FD 10X1KG                              
51100000100CX             000000007130000214  AMENDOIM DESC SALGADO 12X150G                     
51100000200FD             000000007130001160  AMENDOIM 12X500G                                  
51100000100FD             000000007130000666  AVEIA FLOCOS YOKI 12X500G                         
51100000100FD             000000007130015427  CANELA EM PO 24X8G                                
51100000100FD             000000007130000029  CANJICA CRISTAL 12X500G                           
51100000100FD             000000007130015428  CRAVO DA INDIA 24X8G                              
51100000100CX             000000007130000382  CREME DE CEBOLA 12X65G                            
51100000100CX             000000007130003005  FAROFA PALHA 12X200G                              
51100000100FD             000000007130000047  FEIJAO BRANCO 12X500G                             
51100000100FD             000000007130000046  FUBA MIMOSO 12X1KG                                
51100000100FD             000000007130000018  FUBA PRE COZIDO FD 24X500G                        
503MERCADINHO ALVES & FARIAS LTDA                    01444210000484255350246117                  EST DO COPIUVA,1985                               Empresarial Colina                 CARAPICUIBA                        06330000 3510609  SP                                                  1
5051  00014001006042021DIVERSOS       VOLUME         BR0505 123C06042021          N0N0000  N                                                                                                                006042021000000000000000000000000035210413143802000100550010001400101533607360
5060000360000023753100023083200000000000000000000NN000000000000000000000000149257000000000000000000000000000000000000000000000000000000000000000000000000000000000000000000000000000000000000000000000000000000000000000000000000000000000000000000000000000000000000000000000000000000000000000000000000000000000000000000
5070000360000023753100000000000000000000000000000010419000000000000000000000000000000000000000000000000000000000000000000000000000000000000000000000000000000000000000000000000000000000000000000000000000000000000000000000000002000000000000000000000000000000000000000000000000000000000000000000000000000000000000000000000
51100000100CX             000000007130000214  AMENDOIM DESC SALGADO 12X150G                     
51100000100CX             000000007130000215  AMENDOIM DESC TEMPERADO 12X150G                   
51100000100CX             000000007130000216  AMENDOIM DOCE PRALINE 12X150G                     
51100000100CX             000000007130000217  AMENDOIM JAPONES 12X150G                          
51100000100FD             000000007130015423  COMINHO EM PO 24X8G                               
51100000100CX             000000007130001540  YOKLON FARINHA LACTEA 12X230 G                    
51100001500FD             000000007130000687  KIMILHO FLOCAO FD 12X500G                         
51100000300FD             000000007130000046  FUBA MIMOSO 12X1KG                                
51100000100FD             000000007130000018  FUBA PRE COZIDO FD 24X500G                        
51100000100FD             000000007130000845  POPMICRO MANTEIGA CINEMA 36X100G                  
51100000500CX             000000007130000698  PIPOCA PREMIUM 24X500G                            
51100000100CX             000000007130015559  MOLHO DE ALHO 12X150ML                            
51100000100CX             000000007130002836  OAT BRAN YOKI CX 12X170G                          
51100000100FD             000000007130015421  PIMENTA REINO PRETA 24X15G                        
51100000100FD             000000007130000084  SAL MOIDO IODADO 12X1KG                           
51100000100CX             000000007130000615  MAIS SABOR CARNES 48X60G                          
503MERCADINHO ALVES E FARIA & FARIAS LTDA            01444210001103373176788114                  ROD ENGENHEIRO RENE BENEDITO DA S.,668            Empresarial Colina                 ITAPEVI                            06683000 3522505  SP                                                  1
5051  00014001106042021DIVERSOS       VOLUME         BR0505 123C06042021          N0N0000  N                                                                                                                006042021000000000000000000000000035210413143802000100550010001400111371530844
5060000760000053463600051016500000000000000000000NN000000000000000000000000406768000000000000000000000000000000000000000000000000000000000000000000000000000000000000000000000000000000000000000000000000000000000000000000000000000000000000000000000000000000000000000000000000000000000000000000000000000000000000000000
5070000760000053463600000000000000000000000000000023450000000000000000000000000000000000000000000000000000000000000000000000000000000000000000000000000000000000000000000000000000000000000000000000000000000000000000000000000002000000000000000000000000000000000000000000000000000000000000000000000000000000000000000000000
51100000200CX             000000007130002834  AVEIA FLOCOS YOKI CX 12X170G                      
51100000600CX             000000007130003111  BATATA PALHA TRADICIONAL 20X105G                  
51100000100CX             000000007130001379  ALIMENTO SOJA MORANGO 27X200ML                    
51100000300CX             000000007130001073  ALIMENTO COM SOJA ABACAXI 12X1L                   
51100000200CX             000000007130001066  ALIMENTO COM SOJA ORIGINAL 12X1L                  
51100000100CX             000000007130015475  BICARBONAT.DE SODIO 24X80G                        
51100000200CX             000000007130000382  CREME DE CEBOLA 12X65G                            
51100000100FD             000000007130000036  ERVILHA PARTIDA 12X500G                           
51100000100FD             000000007130000042  FARINHA DE ROSCA 24X500G                          
51100000100CX             000000007130000842  FARINHA MANDIOCA GROSSA 12X1KG                    
51100000300CX             000000007130000099  FAROFA MILHO 12X500G                              
51100001000CX             000000007130000100  FAROFA MANDIOCA TEMPERADA 24X500G                 
51100002000FD             000000007130000687  KIMILHO FLOCAO FD 12X500G                         
51100000100FD             000000007130000046  FUBA MIMOSO 12X1KG                                
51100000100FD             000000007130000045  FUBA MIMOSO 24X500G                               
51100000100FD             000000007130000018  FUBA PRE COZIDO FD 24X500G                        
51100000100CX             000000007130001755  POPMICRO COBERTURA CHOCOLATE 30X160G              
51100000100CX             000000007130000072  POPCORN MICRO BACON 36X100G                       
51100000200FD             000000007130000845  POPMICRO MANTEIGA CINEMA 36X100G                  
51100000100CX             000000007130000016  POPCORN MICRO MANTEIGA 36X100G                    
51100000100CX             000000007130000627  POPMICRO TOQUE CHEF 36X100G                       
51100000300CX             000000007130000698  PIPOCA PREMIUM 24X500G                            
51100000200CX             000000007130015559  MOLHO DE ALHO 12X150ML                            
51100000100CX             000000007130015013  MOLHO DE PIMENTA 12X150ML                         
51100000100CX             000000007130015014  MOLHO SHOYU 12X150ML                              
51100000100FD             000000007130000084  SAL MOIDO IODADO 12X1KG                           
51100000100CX             000000007130015532  TEMPERO COMPLETO SEM PIMENTA 24X300G              
51100000100CX             000000007130015952  MAIS SABOR ARROZ BR CX 24X60G                     
51100000100CX             000000007130000616  MAIS SABOR FEIJAO 48X60G                          
51100000200CX             000000007130001188  MAIS SABOR NORDESTINO 24X60G                      
51100000100FD             000000007130000075  TRIGO KIBE 12X500G                                
503MERCADINHO ALVES & FARIAS LTDA                    01444210001294398119351118                  AVENIDA CARMINE GRAGNANO,798                      Empresarial Colina                 JANDIRA                            06600010 3525003  SP                                                  1
5051  00014001206042021DIVERSOS       VOLUME         BR0505 123C06042021          N0N0000  N                                                                                                                006042021000000000000000000000000035210413143802000100550010001400121649107643
5060000270000016397900015216000000000000000000000NN000000000000000000000000127133000000000000000000000000000000000000000000000000000000000000000000000000000000000000000000000000000000000000000000000000000000000000000000000000000000000000000000000000000000000000000000000000000000000000000000000000000000000000000000
5070000270000016397900000000000000000000000000000007193000000000000000000000000000000000000000000000000000000000000000000000000000000000000000000000000000000000000000000000000000000000000000000000000000000000000000000000000002000000000000000000000000000000000000000000000000000000000000000000000000000000000000000000000
51100000100CX             000000007130000215  AMENDOIM DESC TEMPERADO 12X150G                   
51100000100CX             000000007130000216  AMENDOIM DOCE PRALINE 12X150G                     
51100000200CX             000000007130002833  AVEIA FLOCOS FINOS YOKI CX 12X170G                
51100000100CX             000000007130002834  AVEIA FLOCOS YOKI CX 12X170G                      
51100000200CX             000000007130001379  ALIMENTO SOJA MORANGO 27X200ML                    
51100000300CX             000000007130001604  ALIMENTO COM SOJA PESSEGO 27X200ML                
51100000200CX             000000007130001073  ALIMENTO COM SOJA ABACAXI 12X1L                   
51100000300CX             000000007130001370  ALIMENTO SOJA SABOR MARACUJA 12X1L                
51100000100FD             000000007130000029  CANJICA CRISTAL 12X500G                           
51100000100CX             000000007130002835  FARINHA DE AVEIA YOKI CX 12X170G                  
51100000100CX             000000007130002899  FAROFA COM PEDACOS DE CEBOLA12X200G               
51100000100FD             000000007130000047  FEIJAO BRANCO 12X500G                             
51100000100FD             000000007130000045  FUBA MIMOSO 24X500G                               
51100000100CX             000000007130000072  POPCORN MICRO BACON 36X100G                       
51100000100FD             000000007130000845  POPMICRO MANTEIGA CINEMA 36X100G                  
51100000100CX             000000007130000016  POPCORN MICRO MANTEIGA 36X100G                    
51100000100CX             000000007130000627  POPMICRO TOQUE CHEF 36X100G                       
51100000100CX             000000007130015014  MOLHO SHOYU 12X150ML                              
51100000100CX             000000007130000982  PO SORVETE DE COCO 12X150G                        
51100000100FD             000000007130000063  POLVILHO DOCE 12X500G                             
503LUZITA INDUSTRIA E COMERCIO LTDA                  61452280000163105869594112                  R TEODORO SAMPAIO,473                             Empresarial Colina                 SAO PAULO                          05405000 3550308  SP                                                  1
5051  00014001306042021DIVERSOS       VOLUME         BR0505 123C06042021          N0N0000  N                                                                                                                006042021000000000000000000000000035210413143802000100550010001400131837180520
5060000770000035815600033760400000000000000000000NN000000000000000000000000486158000000000000000000000000000000000000000000000000000000000000000000000000000000000000000000000000000000000000000000000000000000000000000000000000000000000000000000000000000000000000000000000000000000000000000000000000000000000000000000
5070000770000035815600000000000000000000000000000015710000000000000000000000000000000000000000000000000000000000000000000000000000000000000000000000000000000000000000000000000000000000000000000000000000000000000000000000000002000000000000000000000000000000000000000000000000000000000000000000000000000000000000000000000
51100000100CX             000000007130000016  POPCORN MICRO MANTEIGA 36X100G                    
51100000100CX             000000007130000062  POPCORN MICRO NATURAL 36X100G                     
51100000100CX             000000007130000627  POPMICRO TOQUE CHEF 36X100G                       
51100000100FD             000000007130000845  POPMICRO MANTEIGA CINEMA 36X100G                  
51100000200CX             000000007130000220  POPCORN MICRO COM SAL 36X100G                     
51100000100CX             000000007130000267  PIPOCA YOKI 24X500G                               
51100000300CX             000000007130000698  PIPOCA PREMIUM 24X500G                            
51100000100FD             000000007130000055  LENTILHA YOKI 12X500G                             
51100000100FD             000000007130001160  AMENDOIM 12X500G                                  
51100000100FD             000000007130000036  ERVILHA PARTIDA 12X500G                           
51100000100CX             000000007130002388  MANDIOQUINHA PALHA EXTRA FINA 20X100G             
51100000100CX             000000007130003111  BATATA PALHA TRADICIONAL 20X105G                  
51100000100CX             000000007130003112  BATATA PALHA EXTRAFINA 20X100G                    
51100000100CX             000000007130003006  FAROFA SOJA 12X200G                               
51100000100CX             000000007130000099  FAROFA MILHO 12X500G                              
51100000100CX             000000007130000100  FAROFA MANDIOCA TEMPERADA 24X500G                 
51100000100FD             000000007130000038  FARINHA MANDIOCA TORRADA 24X500G                  
51100000100FD             000000007130000037  FARINHA MANDIOCA 24X500G                          
51100000200CX             000000007130002933  GOMA DE TAPIOCA 20X500G                           
51100000100FD             000000007130000061  POLVILHO AZEDO 12X500G                            
51100000100FD             000000007130000049  SAGU DE MANDIOCA 12X500G                          
51100000100FD             000000007130000110  FARINHA DE MANDIOCA 12X1KG                        
51100000100CX             000000007130000842  FARINHA MANDIOCA GROSSA 12X1KG                    
51100000100FD             000000007130000063  POLVILHO DOCE 12X500G                             
51100000100FD             000000007130000064  TAPIOCA 12X500G                                   
51100000100FD             000000007130000042  FARINHA DE ROSCA 24X500G                          
51100000100FD             000000007130000075  TRIGO KIBE 12X500G                                
51100000100FD             000000007130000018  FUBA PRE COZIDO FD 24X500G                        
51100000100FD             000000007130000045  FUBA MIMOSO 24X500G                               
51100000100FD             000000007130000039  FARINHA MILHO AMARELA 12X500G                     
51100000300FD             000000007130000687  KIMILHO FLOCAO FD 12X500G                         
51100000100CX             000000007130000796  PACOCA ROLHA 12X352G                              
51100000100CX             000000007130000797  PACOCA TABLETE 12X352G                            
51100000100CX             000000007130000214  AMENDOIM DESC SALGADO 12X150G                     
51100000100CX             000000007130001534  AMENDOIM DESC SALGADO 12X500G                     
51100000100CX             000000007130000217  AMENDOIM JAPONES 12X150G                          
51100000100CX             000000007130000517  AMENDOIM JAPONES 12X500GR                         
51100000100FD             000000007130000084  SAL MOIDO IODADO 12X1KG                           
51100000100FD             000000007130015425  BICARBONATO 24X30G                                
51100000100CX             000000007130015475  BICARBONAT.DE SODIO 24X80G                        
51100000100CX             000000007130015407  CANELA EM PO 24X50G                               
51100000100CX             000000007130015409  CANELA EM CASCA 24X20G                            
51100000100CX             000000007130015410  COLORIFICO 24X80G.                                
51100000100CX             000000007130002959  COLORIFICO 10X500G                                
51100000100CX             000000007130015403  COMINHO EM PO 24X60G                              
51100000100FD             000000007130015428  CRAVO DA INDIA 24X8G                              
51100000100FD             000000007130015430  FOLHA DE LOURO 24X4G                              
51100000100FD             000000007130015610  MANJERICAO DESIDRATADO 24X07G                     
51100000200CX             000000007130015406  OREGANO 24X10G                                    
51100000200FD             000000007130015426  OREGANO 24X3G                                     
51100000100FD             000000007130015497  OREGANO INSTITUCIONAL 6X200G                      
51100000100CX             000000007130015517  CEBOLA ALHO E SALSA 24X40G                        
51100000100CX             000000007130001577  GENGIBRE MOIDO 24X15G                             
51100000100FD             000000007130001578  TOMILHO 24X10G                                    
51100000100CX             000000007130015511  ALHO GRAN ECONOMICA 24X60G                        
51100000100CX             000000007130002046  PAPRICA COM PIMENTA CALABRESA 24X50G              
51100000100CX             000000007130015478  PAPRICA DOCE 24X50G                               
51100000100CX             000000007130002649  CHIMICHURRI 24X12G                                
51100000100CX             000000007130015035  ACAFRAO DA TERRA 24X50G                           
51100000100FD             000000007130015608  ALECRIM DESIDRATADO 24X6G                         
51100000100CX             000000007130015477  CURRY 24X50G                                      
51100000100CX             000000007130015463  SALSA DESIDRATADA 24X8G                           
51100000100CX             000000007130015476  CAMOMILA 24X10G                                   
51100000100CX             000000007130015401  PIMENTA PRETA PO 24X50G                           
51100000100FD             000000007130015462  PIMENTA PRETA GRAO 24X15G                         
51100000100FD             000000007130015464  PIM.BCA.MOIDA 24X15G                              
51100000100FD             000000007130015613  PIMENTA CALABRESA EM FLOCOS 24X13G                
51100000100CX             000000007130015012  MOLHO INGLES 12X150ML                             
51100000100CX             000000007130015014  MOLHO SHOYU 12X150ML                              
503CASA SANTA LUZIA IMPORTADORA LTDA                 59350116000101102942096114                  AL LORENA,1471                                    Empresarial Colina                 SAO PAULO                          01424005 3550308  SP                                                  1
5051  00014001406042021DIVERSOS       VOLUME         BR0505 123C06042021          N0N0000  N                                                                                                                006042021000000000000000000000000035210413143802000100550010001400141167232727
5060003010000153202800146415200000000000000000000NN000000000000000000000001893701000000000000000000000000000000000000000000000000000000000000000000000000000000000000000000000000000000000000000000000000000000000000000000000000000000000000000000000000000000000000000000000000000000000000000000000000000000000000000000
5070003010000153202800000000000000000000000000000067198000000000000000000000000000000000000000000000000000000000000000000000000000000000000000000000000000000000000000000000000000000000000000000000000000000000000000000000000002000000000000000000000000000000000000000000000000000000000000000000000000000000000000000000000
51100000100CX             000000007130015035  ACAFRAO DA TERRA 24X50G                           
51100000300FD             000000007130015608  ALECRIM DESIDRATADO 24X6G                         
51100000200CX             000000007130015511  ALHO GRAN ECONOMICA 24X60G                        
51100000600CX             000000007130000217  AMENDOIM JAPONES 12X150G                          
51100001500FD             000000007130001160  AMENDOIM 12X500G                                  
51100000200CX             000000007130000216  AMENDOIM DOCE PRALINE 12X150G                     
51100000200CX             000000007130002317  BATATA LISA SABOR NATURAL 12X90G                  
51100000300CX             000000007130003117  BATATA PALHA EXTRAFINA PARMESAO 20X100G           
51100004000CX             000000007130003112  BATATA PALHA EXTRAFINA 20X100G                    
51100001200CX             000000007130003111  BATATA PALHA TRADICIONAL 20X105G                  
51100000200CX             000000007130003113  BATATA PALHA TRADICIONAL 24X70G                   
51100001000FD             000000007130015425  BICARBONATO 24X30G                                
51100000200CX             000000007130015409  CANELA EM CASCA 24X20G                            
51100000800CX             000000007130015407  CANELA EM PO 24X50G                               
51100000100FD             000000007130000011  CANJICA AMARELA MUNGUZA 12X500G                   
51100000500FD             000000007130000029  CANJICA CRISTAL 12X500G                           
51100000200FD             000000007130000031  CANJIQUINHA 12X500G                               
51100000200CX             000000007130000300  CHA CAMOMILA LINTEA 24X10G                        
51100000100CX             000000007130000264  CHA CARQUEJA LINTEA 24X10G                        
51100000200CX             000000007130000299  CHA ERVA DOCE LINTEA 24X20G                       
51100000100FD             000000007130000266  CHA HORTELA LINTEA 24X10G                         
51100000200FD             000000007130001587  COENTRO EM PO 24X10G                              
51100000200CX             000000007130015410  COLORIFICO 24X80G.                                
51100000100CX             000000007130015403  COMINHO EM PO 24X60G                              
51100000200CX             000000007130015408  CRAVO DA INDIA 24X40G                             
51100000200CX             000000007130002803  CURAU DE MILHO 12X200G                            
51100000300CX             000000007130015477  CURRY 24X50G                                      
51100000500FD             000000007130000036  ERVILHA PARTIDA 12X500G                           
51100001000FD             000000007130000037  FARINHA MANDIOCA 24X500G                          
51100000200FD             000000007130000038  FARINHA MANDIOCA TORRADA 24X500G                  
51100001200FD             000000007130000039  FARINHA MILHO AMARELA 12X500G                     
51100000800FD             000000007130000042  FARINHA DE ROSCA 24X500G                          
51100000200CX             000000007130003005  FAROFA PALHA 12X200G                              
51100000500CX             000000007130002899  FAROFA COM PEDACOS DE CEBOLA12X200G               
51100000500CX             000000007130003004  FAROFA SUAVE 12X200G                              
51100000700CX             000000007130000100  FAROFA MANDIOCA TEMPERADA 24X500G                 
51100000200CX             000000007130003006  FAROFA SOJA 12X200G                               
51100001200CX             000000007130000129  FECULA DA BATATA 12X200G                          
51100000500FD             000000007130000047  FEIJAO BRANCO 12X500G                             
51100001000FD             000000007130000045  FUBA MIMOSO 24X500G                               
51100000300FD             000000007130000018  FUBA PRE COZIDO FD 24X500G                        
51100000100CX             000000007130001577  GENGIBRE MOIDO 24X15G                             
51100002000FD             000000007130000053  GRAO DE BICO 12X500G                              
51100003000FD             000000007130000687  KIMILHO FLOCAO FD 12X500G                         
51100000200FD             000000007130000087  FARINHA MILHO KIMILHO 24X500G                     
51100002600FD             000000007130000055  LENTILHA YOKI 12X500G                             
503CASA SANTA LUZIA IMPORTADORA LTDA                 59350116000101102942096114                  AL LORENA,1471                                    Empresarial Colina                 SAO PAULO                          01424005 3550308  SP                                                  1
5051  00014001506042021DIVERSOS       VOLUME         BR0505 123C06042021          N0N0000  N                                                                                                                006042021000000000000000000000000035210413143802000100550010001400151959061040
5060002050000106056400098715400000000000000000000NN000000000000000000000001342696000000000000000000000000000000000000000000000000000000000000000000000000000000000000000000000000000000000000000000000000000000000000000000000000000000000000000000000000000000000000000000000000000000000000000000000000000000000000000000
5070002050000106056400000000000000000000000000000046519000000000000000000000000000000000000000000000000000000000000000000000000000000000000000000000000000000000000000000000000000000000000000000000000000000000000000000000000002000000000000000000000000000000000000000000000000000000000000000000000000000000000000000000000
51100000500FD             000000007130015430  FOLHA DE LOURO 24X4G                              
51100000500CX             000000007130002388  MANDIOQUINHA PALHA EXTRA FINA 20X100G             
51100000200FD             000000007130015610  MANJERICAO DESIDRATADO 24X07G                     
51100000200CX             000000007130002241  MISTURA PREPARO BOLO BROWNIE 8X450G               
51100000200FD             000000007130000139  MISTURA PARA EMPANAR 12X300G                      
51100000400FD             000000007130015431  NOZ MOSCADA 24X8G                                 
51100002000CX             000000007130015406  OREGANO 24X10G                                    
51100000200CX             000000007130000797  PACOCA TABLETE 12X352G                            
51100000400CX             000000007130000796  PACOCA ROLHA 12X352G                              
51100000200CX             000000007130000798  PE DE MOLEQUE 12X306G                             
51100000200FD             000000007130015464  PIM.BCA.MOIDA 24X15G                              
51100000100CX             000000007130015402  PIMENTA E COMINHO 24X70G                          
51100000100FD             000000007130015613  PIMENTA CALABRESA EM FLOCOS 24X13G                
51100000500FD             000000007130015462  PIMENTA PRETA GRAO 24X15G                         
51100000300CX             000000007130015401  PIMENTA PRETA PO 24X50G                           
51100000200CX             000000007130000016  POPCORN MICRO MANTEIGA 36X100G                    
51100000600CX             000000007130000062  POPCORN MICRO NATURAL 36X100G                     
51100001200CX             000000007130000220  POPCORN MICRO COM SAL 36X100G                     
51100000200CX             000000007130001529  POPCORN MICRO COBERT CARAMELO 30X160G             
51100000800FD             000000007130000845  POPMICRO MANTEIGA CINEMA 36X100G                  
51100000100CX             000000007130001755  POPMICRO COBERTURA CHOCOLATE 30X160G              
51100000100CX             000000007130002510  PIPOCA PRONTA CARAMELO 9X100G                     
51100000200CX             000000007130002516  PIPOCA PRONTA DOCE 9X100G                         
51100000200CX             000000007130002512  PIPOCA PRONTA CHOCOLATE 9X100G                    
51100000400CX             000000007130000267  PIPOCA YOKI 24X500G                               
51100000300CX             000000007130003021  POPCORN MICRO MANTEIGA 36X90G                     
51100000300CX             000000007130003020  POPCORN MICRO NATURAL SAL 36X90G                  
51100000200CX             000000007130003019  POPCORN MICRO NATURAL 36X90G                      
51100001500CX             000000007130000698  PIPOCA PREMIUM 24X500G                            
51100000500CX             000000007130002262  PIPOCA SUPER PREMIUM 15X650G                      
51100000300CX             000000007130000021  POLENTA PRONTA YOKI 12X1KG                        
51100001500FD             000000007130000061  POLVILHO AZEDO 12X500G                            
51100001000FD             000000007130000063  POLVILHO DOCE 12X500G                             
51100000200CX             000000007130001144  ALIMENTO PURA SOJA 12X1L                          
51100000100FD             000000007130000065  QUIRERA MILHO TORI 12X500G                        
51100000500FD             000000007130000049  SAGU DE MANDIOCA 12X500G                          
51100000300FD             000000007130000084  SAL MOIDO IODADO 12X1KG                           
51100000100CX             000000007130015463  SALSA DESIDRATADA 24X8G                           
51100001500FD             000000007130000064  TAPIOCA 12X500G                                   
51100000100CX             000000007130015001  ADOBO TEMP CHURRASCO 24X12G                       
51100000100FD             000000007130001578  TOMILHO 24X10G                                    
51100002000FD             000000007130000075  TRIGO KIBE 12X500G                                
503NUTRICAR BRASIL COMERCIO DE PRODUTO ALIMENTICIOS L21590391000111623200819110                  AV HONORIO ALVARES PENTEADO,97                    Empresarial Colina                 SANTANA DE PARNAIBA                06543320 3547304  SP                                                  1
5051  00014001606042021DIVERSOS       VOLUME         BR0505 123C06042021          N0N0000  N                                                                                                                006042021000000000000000000000000035210413143802000100550010001400161625880570
5060000510000062094500061200000000000000000000000NN000000000000000000000000313421000000000000000000000000000000000000000000000000000000000000000000000000000000000000000000000000000000000000000000000000000000000000000000000000000000000000000000000000000000000000000000000000000000000000000000000000000000000000000000
5070000510000062094500000000000000000000000000000027236000000000000000000000000000000000000000000000000000000000000000000000000000000000000000000000000000000000000000000000000000000000000000000000000000000000000000000000000002000000000000000000000000000000000000000000000000000000000000000000000000000000000000000000000
51100001000CX             000000007130000100  FAROFA MANDIOCA TEMPERADA 24X500G                 
51100004100CX             000000007130000267  PIPOCA YOKI 24X500G                               
503COMERCIAL GENESIO DE ALIMENTOS LTDA - EPP         59610469000195112198822112                  AV FIORELLI PECCICACCO,1321                       Empresarial Colina                 SAO PAULO                          05201050 3550308  SP                                                  1
5051  00014001706042021DIVERSOS       VOLUME         BR0505 123C06042021          N0N0000  N                                                                                                                006042021000000000000000000000000035210413143802000100550010001400171495098735
5060001950000108235300102070300000000000000000000NN000000000000000000000001242691000000000000000000000000000000000000000000000000000000000000000000000000000000000000000000000000000000000000000000000000000000000000000000000000000000000000000000000000000000000000000000000000000000000000000000000000000000000000000000
5070001950000108235300000000000000000000000000000047475000000000000000000000000000000000000000000000000000000000000000000000000000000000000000000000000000000000000000000000000000000000000000000000000000000000000000000000000002000000000000000000000000000000000000000000000000000000000000000000000000000000000000000000000
51100000100FD             000000007130000845  POPMICRO MANTEIGA CINEMA 36X100G                  
51100000100CX             000000007130000220  POPCORN MICRO COM SAL 36X100G                     
51100000100CX             000000007130001755  POPMICRO COBERTURA CHOCOLATE 30X160G              
51100000100CX             000000007130001529  POPCORN MICRO COBERT CARAMELO 30X160G             
51100001000CX             000000007130000267  PIPOCA YOKI 24X500G                               
51100001000CX             000000007130000698  PIPOCA PREMIUM 24X500G                            
51100000400FD             000000007130000029  CANJICA CRISTAL 12X500G                           
51100000100FD             000000007130000053  GRAO DE BICO 12X500G                              
51100000200FD             000000007130001160  AMENDOIM 12X500G                                  
51100000100FD             000000007130000036  ERVILHA PARTIDA 12X500G                           
51100000300FD             000000007130000042  FARINHA DE ROSCA 24X500G                          
51100000200FD             000000007130000075  TRIGO KIBE 12X500G                                
51100000100FD             000000007130000018  FUBA PRE COZIDO FD 24X500G                        
51100000100FD             000000007130000045  FUBA MIMOSO 24X500G                               
51100000200FD             000000007130000039  FARINHA MILHO AMARELA 12X500G                     
51100000200FD             000000007130000087  FARINHA MILHO KIMILHO 24X500G                     
51100001000FD             000000007130000687  KIMILHO FLOCAO FD 12X500G                         
51100000200FD             000000007130000019  FUBA PRE COZIDO FD 12X1KG                         
51100000200FD             000000007130000046  FUBA MIMOSO 12X1KG                                
51100000100CX             000000007130000981  PO SORVETE ABACAXI 12X150G                        
51100000100CX             000000007130000993  PO SORVETE CREME 12X150G                          
51100000100CX             000000007130002805  REFRESCO PO ABACAXI 24X300G                       
51100000100CX             000000007130002807  REFRESCO PO MANGA 24X300G                         
51100000100CX             000000007130001777  PO REFRESCO LARANJA 8X15X30G                      
51100000100CX             000000007130001778  PO REFRESCO LIMAO 8X15X30G                        
51100000100CX             000000007130001779  PO REFRESCO TANGERINA 8X15X30G                    
51100000100CX             000000007130001781  PO REFRESCO ABACAXI 8X15X30G                      
51100000100CX             000000007130001783  PO REFRESCO MARACUJA 8X15X30G                     
51100000300CX             000000007130002833  AVEIA FLOCOS FINOS YOKI CX 12X170G                
51100000300CX             000000007130002834  AVEIA FLOCOS YOKI CX 12X170G                      
51100000200CX             000000007130002835  FARINHA DE AVEIA YOKI CX 12X170G                  
51100000100CX             000000007130001504  AMIDO DE MILHO 12X200G                            
51100000100CX             000000007130002836  OAT BRAN YOKI CX 12X170G                          
51100000100CX             000000007130003115  BATATA PALHA EXTRAFINA CEB SALSA 20X100G          
51100000200CX             000000007130003112  BATATA PALHA EXTRAFINA 20X100G                    
51100000700CX             000000007130003111  BATATA PALHA TRADICIONAL 20X105G                  
51100000100CX             000000007130001083  PURE DE BATATA YOKI 24X180G                       
51100000300CX             000000007130002899  FAROFA COM PEDACOS DE CEBOLA12X200G               
51100000200CX             000000007130003005  FAROFA PALHA 12X200G                              
51100000100CX             000000007130003006  FAROFA SOJA 12X200G                               
51100000100CX             000000007130000007  MISTURA PAO DE QUEIJO YOKI 30X250G                
51100000200CX             000000007130000099  FAROFA MILHO 12X500G                              
51100000100FD             000000007130000038  FARINHA MANDIOCA TORRADA 24X500G                  
51100000100FD             000000007130000037  FARINHA MANDIOCA 24X500G                          
51100000200CX             000000007130002933  GOMA DE TAPIOCA 20X500G                           
51100000100FD             000000007130000061  POLVILHO AZEDO 12X500G                            
51100000100FD             000000007130000049  SAGU DE MANDIOCA 12X500G                          
51100000100FD             000000007130000110  FARINHA DE MANDIOCA 12X1KG                        
51100000100FD             000000007130000063  POLVILHO DOCE 12X500G                             
51100000100FD             000000007130000064  TAPIOCA 12X500G                                   
51100000100CX             000000007130000214  AMENDOIM DESC SALGADO 12X150G                     
51100000100CX             000000007130000215  AMENDOIM DESC TEMPERADO 12X150G                   
51100000100CX             000000007130001131  AMENDOIM COM MEL 12X150G                          
51100000100CX             000000007130003137  FAROFA TRADICIONAL PREMIUM 15X380G                
51100000100CX             000000007130001132  CASTANHA DE CAJU CX 12X100G                       
51100000100CX             000000007130003011  AMENDOIM SABOR CEBOLA E ERVAS 12X150G             
51100000100CX             000000007130001534  AMENDOIM DESC SALGADO 12X500G                     
51100000100CX             000000007130000217  AMENDOIM JAPONES 12X150G                          
51100000100CX             000000007130000517  AMENDOIM JAPONES 12X500GR                         
51100000100CX             000000007130003012  AMENDOIM SABOR PICANTE 12X150G                    
51100000100CX             000000007130000216  AMENDOIM DOCE PRALINE 12X150G                     
51100000100CX             000000007130001759  AMENDOIM INDIANO YOKI 12X150G                     
51100000100CX             000000007130002307  OVINHO DE AMENDOIM 25X90G                         
51100000200CX             000000007130001068  ALIMENTO COM SOJA MACA 12X1L                      
51100000200CX             000000007130001070  ALIMENTO COM SOJA LARANJA 12X1L                   
51100000200CX             000000007130001073  ALIMENTO COM SOJA ABACAXI 12X1L                   
51100000100CX             000000007130001370  ALIMENTO SOJA SABOR MARACUJA 12X1L                
51100000100CX             000000007130001379  ALIMENTO SOJA MORANGO 27X200ML                    
51100000200CX             000000007130001381  ALIMENTO SOJA LARANJA 27X200ML                    
51100000200CX             000000007130001382  ALIMENTO SOJA SABOR MACA 27X200ML                 
51100000100CX             000000007130001604  ALIMENTO COM SOJA PESSEGO 27X200ML                
51100000100CX             000000007130000264  CHA CARQUEJA LINTEA 24X10G                        
51100000100FD             000000007130000266  CHA HORTELA LINTEA 24X10G                         
51100000100CX             000000007130000299  CHA ERVA DOCE LINTEA 24X20G                       
51100000200CX             000000007130000300  CHA CAMOMILA LINTEA 24X10G                        
51100000100CX             000000007130015475  BICARBONAT.DE SODIO 24X80G                        
51100000100CX             000000007130015409  CANELA EM CASCA 24X20G                            
51100000100CX             000000007130015401  PIMENTA PRETA PO 24X50G                           
51100000100CX             000000007130015402  PIMENTA E COMINHO 24X70G                          
51100000100CX             000000007130002823  CALDO PO DE CARNE 24X37,5G                        
51100000100CX             000000007130002824  CALDO PO DE GALINHA 24X37,5G                      
51100000100CX             000000007130002827  CALDO PO DE PICANHA 24X37,5G                      
51100000100CX             000000007130002828  CALDO PO DE LEGUMES 24X37,5G                      
51100000200CX             000000007130000613  MAIS SABOR AVES 48X60G                            
51100000400CX             000000007130000615  MAIS SABOR CARNES 48X60G                          
51100000200CX             000000007130000616  MAIS SABOR FEIJAO 48X60G                          
51100000200CX             000000007130000617  MAIS SABOR LEGUMES 48X60G                         
51100000100CX             000000007130000618  MAIS SABOR MASSAS 48X60G                          
51100000200CX             000000007130001188  MAIS SABOR NORDESTINO 24X60G                      
51100000200CX             000000007130001345  MAIS SABOR GAUCHO 24X60G                          
51100000100CX             000000007130002138  MAIS SABOR SALADA 48X60G                          
51100000200CX             000000007130015952  MAIS SABOR ARROZ BR CX 24X60G                     
51100000200CX             000000007130015013  MOLHO DE PIMENTA 12X150ML                         
51100000100CX             000000007130015559  MOLHO DE ALHO 12X150ML                            
51100000100CX             000000007130015643  TOQUE CHEF AVES 24X120G                           
51100000100CX             000000007130015644  TOQUE CHEF GRELHADOS 24X120G                      
51100000600CX             000000007130000382  CREME DE CEBOLA 12X65G                            
51100000300FD             000000007130000084  SAL MOIDO IODADO 12X1KG                           
51100000200FD             000000007130001015  SAL GROSSO FD 10X1KG                              
51100000100CX             000000007130002238  MISTURA PREPARO BOLO CHOCOLATE 8X425G             
51100000100CX             000000007130002240  MISTURA PREPARO BOLO LARANJA 8X425G               
51100000100CX             000000007130015410  COLORIFICO 24X80G.                                
51100000100FD             000000007130015640  COLORIFICO 24X200 G                               
51100000100CX             000000007130015403  COMINHO EM PO 24X60G                              
51100000100CX             000000007130015424  ERVA DOCE 24X40G                                  
51100000100FD             000000007130015610  MANJERICAO DESIDRATADO 24X07G                     
51100000100FD             000000007130015641  OREGANO 24X15G                                    
51100000100CX             000000007130015517  CEBOLA ALHO E SALSA 24X40G                        
51100000100FD             000000007130001579  CEBOLINHA VERDE 24X5G                             
51100000100CX             000000007130001577  GENGIBRE MOIDO 24X15G                             
51100000100FD             000000007130001587  COENTRO EM PO 24X10G                              
51100000100CX             000000007130015478  PAPRICA DOCE 24X50G                               
51100000100CX             000000007130015950  TEMPERO BAIANO KITAN CX 24X40G                    
51100000100CX             000000007130002649  CHIMICHURRI 24X12G                                
51100000100CX             000000007130015035  ACAFRAO DA TERRA 24X50G                           
51100000100CX             000000007130015477  CURRY 24X50G                                      
503GATHUR MERCADO LTDA ME                            33177030000127123838571110                  R DEDALION,142                                    Empresarial Colina                 SAO PAULO                          05223120 3550308  SP                                                  1
5051  00014001806042021DIVERSOS       VOLUME         BR0505 123C06042021          N0N0000  N                                                                                                                006042021000000000000000000000000035210413143802000100550010001400181649798747
5060000170000006832900006417000000000000000000000NN000000000000000000000000089408000000000000000000000000000000000000000000000000000000000000000000000000000000000000000000000000000000000000000000000000000000000000000000000000000000000000000000000000000000000000000000000000000000000000000000000000000000000000000000
5070000170000006832900000000000000000000000000000002997000000000000000000000000000000000000000000000000000000000000000000000000000000000000000000000000000000000000000000000000000000000000000000000000000000000000000000000000002000000000000000000000000000000000000000000000000000000000000000000000000000000000000000000000
51100000100CX             000000007130000698  PIPOCA PREMIUM 24X500G                            
51100000100FD             000000007130000042  FARINHA DE ROSCA 24X500G                          
51100000100FD             000000007130000087  FARINHA MILHO KIMILHO 24X500G                     
51100000200FD             000000007130000687  KIMILHO FLOCAO FD 12X500G                         
51100000100CX             000000007130002834  AVEIA FLOCOS YOKI CX 12X170G                      
51100000100CX             000000007130001504  AMIDO DE MILHO 12X200G                            
51100000100CX             000000007130003113  BATATA PALHA TRADICIONAL 24X70G                   
51100000100CX             000000007130003111  BATATA PALHA TRADICIONAL 20X105G                  
51100000100FD             000000007130015425  BICARBONATO 24X30G                                
51100000100CX             000000007130002824  CALDO PO DE GALINHA 24X37,5G                      
51100000100CX             000000007130001228  CALDO DE CARNE 10X57 G                            
51100000100CX             000000007130000617  MAIS SABOR LEGUMES 48X60G                         
51100000100CX             000000007130015406  OREGANO 24X10G                                    
51100000100CX             000000007130015950  TEMPERO BAIANO KITAN CX 24X40G                    
51100000100CX             000000007130003099  AMENDOIM JAPONES 12X70G                           
51100000100CX             000000007130003100  AMENDOIM DESCASCADO SALGADO 12X70G                
503GATHUR MERCADO LTDA ME                            33177030000127123838571110                  R DEDALION,142                                    Empresarial Colina                 SAO PAULO                          05223120 3550308  SP                                                  1
5051  00014003607042021DIVERSOS       VOLUME         BR0505 123C07042021          N0N0000  N                                                                                                                007042021000000000000000000000000035210413143802000100550010001400361366877423
5060000200000054000000054000000000000000000000000NN000000000000000000000000080000000000000000000000000000000000000000000000000000000000000000000000000000000000000000000000000000000000000000000000000000000000000000000000000000000000000000000000000000000000000000000000000000000000000000000000000000000000000000000000
5070000200000054000000000000000000000000000000000047371000000000000000000000000000000000000000000000000000000000000000000000000000000000000000000000000000000000000000000000000000000000000000000000000000000000000000000000000002000000000000000000000000000000000000000000000000000000000000000000000000000000000000000000000
51100002000UN             000000007137000000  PALLETS DE MADEIRA                                
503SUPERMERCADO MANANCIAL LTDA - EPP                 11389286000165311096879116                  R DAS HORTENCIAS,328                              Empresarial Colina                 FRANCISCO MORATO                   07991000 3516309  SP                                                  1
5051  00013998006042021DIVERSOS       VOLUME         BR0505 123C06042021          N0N0000  N                                                                                                                006042021000000000000000000000000035210413143802000100550010001399801656100353
5060000100000006126000006000000000000000000000000NN000000000000000000000000025886000000000000000000000000000000000000000000000000000000000000000000000000000000000000000000000000000000000000000000000000000000000000000000000000000000000000000000000000000000000000000000000000000000000000000000000000000000000000000000
5070000100000006126000000000000000000000000000000002687000000000000000000000000000000000000000000000000000000000000000000000000000000000000000000000000000000000000000000000000000000000000000000000000000000000000000000000000002000000000000000000000000000000000000000000000000000000000000000000000000000000000000000000000
51100001000FD             000000007130000687  KIMILHO FLOCAO FD 12X500G                         
503A.E.B. RAPOSO & CIA LTDA                          03492086000105492054694110                  AV DOS AUTONOMISTAS,451                           Empresarial Colina                 OSASCO                             06020000 3534401  SP                                                  1
5051  00013998106042021DIVERSOS       VOLUME         BR0505 123C06042021          N0N0000  N                                                                                                                006042021000000000000000000000000035210413143802000100550010001399811354934810
5060000560000031769800029882800000000000000000000NN000000000000000000000000344337000000000000000000000000000000000000000000000000000000000000000000000000000000000000000000000000000000000000000000000000000000000000000000000000000000000000000000000000000000000000000000000000000000000000000000000000000000000000000000
5070000560000031769800000000000000000000000000000013935000000000000000000000000000000000000000000000000000000000000000000000000000000000000000000000000000000000000000000000000000000000000000000000000000000000000000000000000002000000000000000000000000000000000000000000000000000000000000000000000000000000000000000000000
51100000200CX             000000007130000016  POPCORN MICRO MANTEIGA 36X100G                    
51100000100CX             000000007130000062  POPCORN MICRO NATURAL 36X100G                     
51100000100FD             000000007130000845  POPMICRO MANTEIGA CINEMA 36X100G                  
51100000100CX             000000007130000220  POPCORN MICRO COM SAL 36X100G                     
51100000100CX             000000007130002971  POPCORN MICRO NATURAL 36X50G                      
51100000100CX             000000007130002972  POPCORN MICRO MANTEIGA 36X50G                     
51100000400CX             000000007130000698  PIPOCA PREMIUM 24X500G                            
51100000100FD             000000007130000053  GRAO DE BICO 12X500G                              
51100000100FD             000000007130001160  AMENDOIM 12X500G                                  
51100000100CX             000000007130003117  BATATA PALHA EXTRAFINA PARMESAO 20X100G           
51100000100CX             000000007130003112  BATATA PALHA EXTRAFINA 20X100G                    
51100000200CX             000000007130003111  BATATA PALHA TRADICIONAL 20X105G                  
51100000100CX             000000007130002899  FAROFA COM PEDACOS DE CEBOLA12X200G               
51100000100CX             000000007130003004  FAROFA SUAVE 12X200G                              
51100000200CX             000000007130000099  FAROFA MILHO 12X500G                              
51100000200CX             000000007130000100  FAROFA MANDIOCA TEMPERADA 24X500G                 
51100000100FD             000000007130000038  FARINHA MANDIOCA TORRADA 24X500G                  
51100000100FD             000000007130000061  POLVILHO AZEDO 12X500G                            
51100000100FD             000000007130000063  POLVILHO DOCE 12X500G                             
51100000100FD             000000007130000139  MISTURA PARA EMPANAR 12X300G                      
51100000100FD             000000007130000042  FARINHA DE ROSCA 24X500G                          
51100000100FD             000000007130000075  TRIGO KIBE 12X500G                                
51100000100FD             000000007130000045  FUBA MIMOSO 24X500G                               
51100000100FD             000000007130000039  FARINHA MILHO AMARELA 12X500G                     
51100000400FD             000000007130000687  KIMILHO FLOCAO FD 12X500G                         
51100000100FD             000000007130000046  FUBA MIMOSO 12X1KG                                
51100000100CX             000000007130002427  YOKITOS CONCH PRES 30X54G                         
51100000100CX             000000007130002429  YOKITOS QUEIJO REDINHA 36X45G                     
51100000100CX             000000007130002310  BATATA ONDULADA 14X90G                            
51100000100CX             000000007130002312  BATATA ONDULADA CHURRASCO 14X90G                  
51100000100CX             000000007130000217  AMENDOIM JAPONES 12X150G                          
51100000100CX             000000007130001759  AMENDOIM INDIANO YOKI 12X150G                     
51100000100CX             000000007130001068  ALIMENTO COM SOJA MACA 12X1L                      
51100000100CX             000000007130001070  ALIMENTO COM SOJA LARANJA 12X1L                   
51100000100CX             000000007130015475  BICARBONAT.DE SODIO 24X80G                        
51100000100CX             000000007130015407  CANELA EM PO 24X50G                               
51100000100CX             000000007130015424  ERVA DOCE 24X40G                                  
51100000100CX             000000007130015406  OREGANO 24X10G                                    
51100000100CX             000000007130015401  PIMENTA PRETA PO 24X50G                           
51100000100CX             000000007130000617  MAIS SABOR LEGUMES 48X60G                         
51100000100CX             000000007130000388  SOPAO DE GALINHA 24X196G                          
51100000200CX             000000007130000382  CREME DE CEBOLA 12X65G                            
51100000100FD             000000007130000087  FARINHA MILHO KIMILHO 24X500G                     
51100000100CX             000000007130000794  POPMICRO SAL 36X50G                               
51100000100FD             000000007130000055  LENTILHA YOKI 12X500G                             
503SS COMERCIO DE ALIMENTOS LTDA                     67954404000357239096650117                  AV DAS ARAUCAREAS JD EUCALIPTOS,102               Empresarial Colina                 CAIEIRAS                           07700210 3509007  SP                                                  1
5051  00013998206042021DIVERSOS       VOLUME         BR0505 123C06042021          N0N0000  N                                                                                                                006042021000000000000000000000000035210413143802000100550010001399821993397500
5060000190000006097600005308400000000000000000000NN000000000000000000000000136487000000000000000000000000000000000000000000000000000000000000000000000000000000000000000000000000000000000000000000000000000000000000000000000000000000000000000000000000000000000000000000000000000000000000000000000000000000000000000000
5070000190000006097600000000000000000000000000000007395000000000000000000000000000000000000000000000000000000000000000000000000000000000000000000000000000000000000000000000000000000000000000000000000000000000000000000000000002000000000000000000000000000000000000000000000000000000000000000000000000000000000000000000000
51100000100CX             000000007130000249  GLICOSE YOKI BISNAGA 12X350G                      
51100000300CX             000000007130000517  AMENDOIM JAPONES 12X500GR                         
51100000100CX             000000007130003117  BATATA PALHA EXTRAFINA PARMESAO 20X100G           
51100000600CX             000000007130003111  BATATA PALHA TRADICIONAL 20X105G                  
51100000100CX             000000007130000797  PACOCA TABLETE 12X352G                            
51100000100CX             000000007130000981  PO SORVETE ABACAXI 12X150G                        
51100000100CX             000000007130000990  PO SORVETE CHOCOLATE 12X150G                      
51100000100CX             000000007130000991  PO SORVETE MORANGO 12X150G                        
51100000100CX             000000007130002319  YOKITOS CONCHINHA QUEIJO 16X153G                  
51100000200CX             000000007130002331  YOKITOS CEBOLA CX24X54G                           
51100000100CX             000000007130002427  YOKITOS CONCH PRES 30X54G                         
503SS COMERCIO DE ALIMENTOS LTDA                     67954404000276312114417116                  AVENIDA DOS EXPEDICIONARIOS,77                    Empresarial Colina                 FRANCO DA ROCHA                    07700210 3509007  SP                                                  1
5051  00013998306042021DIVERSOS       VOLUME         BR0505 123C06042021          N0N0000  N                                                                                                                006042021000000000000000000000000035210413143802000100550010001399831590172663
5060000170000004127400003399600000000000000000000NN000000000000000000000000112027000000000000000000000000000000000000000000000000000000000000000000000000000000000000000000000000000000000000000000000000000000000000000000000000000000000000000000000000000000000000000000000000000000000000000000000000000000000000000000
5070000170000004127400000000000000000000000000000007777000000000000000000000000000000000000000000000000000000000000000000000000000000000000000000000000000000000000000000000000000000000000000000000000000000000000000000000000002000000000000000000000000000000000000000000000000000000000000000000000000000000000000000000000
51100000100CX             000000007130001534  AMENDOIM DESC SALGADO 12X500G                     
51100000200CX             000000007130000217  AMENDOIM JAPONES 12X150G                          
51100000100CX             000000007130002310  BATATA ONDULADA 14X90G                            
51100000300CX             000000007130003112  BATATA PALHA EXTRAFINA 20X100G                    
51100000300CX             000000007130003111  BATATA PALHA TRADICIONAL 20X105G                  
51100000100CX             000000007130002332  YOKITOS ANEIS DE CEBOLA 12X108G                   
51100000100CX             000000007130002430  YOKITOS QUEIJO REDINHA 16X135G                    
51100000100CX             000000007130002325  YOKITOS QUEIJO LUA 16X135G                        
51100000200CX             000000007130002427  YOKITOS CONCH PRES 30X54G                         
51100000100CX             000000007130002318  YOKITOS CONCH QJO 30X54G                          
51100000100FD             000000007130015462  PIMENTA PRETA GRAO 24X15G                         
503SS COMERCIO DE ALIMENTOS LTDA                     67954404000519312121974118                  R JOSE DE SOUZA,25                                Empresarial Colina                 FRANCO DA ROCHA                    07809120 3516408  SP                                                  1
5051  00013998406042021DIVERSOS       VOLUME         BR0505 123C06042021          N0N0000  N                                                                                                                006042021000000000000000000000000035210413143802000100550010001399841325672081
5060000180000003051100002403200000000000000000000NN000000000000000000000000108629000000000000000000000000000000000000000000000000000000000000000000000000000000000000000000000000000000000000000000000000000000000000000000000000000000000000000000000000000000000000000000000000000000000000000000000000000000000000000000
5070000180000003051100000000000000000000000000000006974000000000000000000000000000000000000000000000000000000000000000000000000000000000000000000000000000000000000000000000000000000000000000000000000000000000000000000000000002000000000000000000000000000000000000000000000000000000000000000000000000000000000000000000000
51100000200CX             000000007130000214  AMENDOIM DESC SALGADO 12X150G                     
51100000100CX             000000007130003117  BATATA PALHA EXTRAFINA PARMESAO 20X100G           
51100000200CX             000000007130003111  BATATA PALHA TRADICIONAL 20X105G                  
51100000100CX             000000007130002332  YOKITOS ANEIS DE CEBOLA 12X108G                   
51100000500CX             000000007130002331  YOKITOS CEBOLA CX24X54G                           
51100000200CX             000000007130002427  YOKITOS CONCH PRES 30X54G                         
51100000200CX             000000007130002649  CHIMICHURRI 24X12G                                
51100000100CX             000000007130015409  CANELA EM CASCA 24X20G                            
51100000100CX             000000007130015035  ACAFRAO DA TERRA 24X50G                           
51100000100CX             000000007130015950  TEMPERO BAIANO KITAN CX 24X40G                    
503MERCADINHO JARDIM SAO PAULO LTDA ME               35274583000123126981808117                  RUA CARLOS CAMARGO ARANHA,86                      Empresarial Colina                 SAO PAULO                          02039090 3550308  SP                                                  1
5051  00013998506042021DIVERSOS       VOLUME         BR0505 123C06042021          N0N0000  N                                                                                                                006042021000000000000000000000000035210413143802000100550010001399851503079524
5060000150000003671700003455600000000000000000000NN000000000000000000000000088975000000000000000000000000000000000000000000000000000000000000000000000000000000000000000000000000000000000000000000000000000000000000000000000000000000000000000000000000000000000000000000000000000000000000000000000000000000000000000000
5070000150000003671700000000000000000000000000000001974000000000000000000000000000000000000000000000000000000000000000000000000000000000000000000000000000000000000000000000000000000000000000000000000000000000000000000000000002000000000000000000000000000000000000000000000000000000000000000000000000000000000000000000000
51100000100CX             000000007130003111  BATATA PALHA TRADICIONAL 20X105G                  
51100000100CX             000000007130003112  BATATA PALHA EXTRAFINA 20X100G                    
51100000100FD             000000007130001160  AMENDOIM 12X500G                                  
51100000100FD             000000007130000053  GRAO DE BICO 12X500G                              
51100000100FD             000000007130000687  KIMILHO FLOCAO FD 12X500G                         
51100000100FD             000000007130000075  TRIGO KIBE 12X500G                                
51100000100CX             000000007130015406  OREGANO 24X10G                                    
51100000100CX             000000007130015035  ACAFRAO DA TERRA 24X50G                           
51100000100FD             000000007130015427  CANELA EM PO 24X8G                                
51100000100FD             000000007130015428  CRAVO DA INDIA 24X8G                              
51100000100CX             000000007130015404  ERVA DOCE 24X8G                                   
51100000100FD             000000007130015464  PIM.BCA.MOIDA 24X15G                              
51100000100FD             000000007130015462  PIMENTA PRETA GRAO 24X15G                         
51100000100CX             000000007130015475  BICARBONAT.DE SODIO 24X80G                        
51100000100CX             000000007130015012  MOLHO INGLES 12X150ML                             
503NK MERCADO LTDA ME                                41283000000123120320410117                  R NOSSA SEN IMACULADA CONCEICAO,150               Empresarial Colina                 OSASCO                             06190100 3534401  SP                                                  1
5051  00013998606042021DIVERSOS       VOLUME         BR0505 123C06042021          N0N0000  N                                                                                                                006042021000000000000000000000000035210413143802000100550010001399861089194813
5060000400000022724100021827000000000000000000000NN000000000000000000000000292114000000000000000000000000000000000000000000000000000000000000000000000000000000000000000000000000000000000000000000000000000000000000000000000000000000000000000000000000000000000000000000000000000000000000000000000000000000000000000000
5070000400000022724100000000000000000000000000000009967000000000000000000000000000000000000000000000000000000000000000000000000000000000000000000000000000000000000000000000000000000000000000000000000000000000000000000000000002000000000000000000000000000000000000000000000000000000000000000000000000000000000000000000000
51100000100FD             000000007130000011  CANJICA AMARELA MUNGUZA 12X500G                   
51100000100FD             000000007130000029  CANJICA CRISTAL 12X500G                           
51100000100FD             000000007130000031  CANJIQUINHA 12X500G                               
51100000100FD             000000007130000053  GRAO DE BICO 12X500G                              
51100000100FD             000000007130001160  AMENDOIM 12X500G                                  
51100000100FD             000000007130000036  ERVILHA PARTIDA 12X500G                           
51100000100FD             000000007130000047  FEIJAO BRANCO 12X500G                             
51100000100FD             000000007130000055  LENTILHA YOKI 12X500G                             
51100000100CX             000000007130000240  CEVADA TORRADA MOIDA 12X500G                      
51100000100CX             000000007130002388  MANDIOQUINHA PALHA EXTRA FINA 20X100G             
51100000100CX             000000007130003117  BATATA PALHA EXTRAFINA PARMESAO 20X100G           
51100000100CX             000000007130003116  BATATA PALHA EXTRAFINA HOT DOG 20X100G            
51100000100CX             000000007130003115  BATATA PALHA EXTRAFINA CEB SALSA 20X100G          
51100000100CX             000000007130003114  BATATA PALHA EXTRAFINA 8X240G                     
51100000100CX             000000007130003112  BATATA PALHA EXTRAFINA 20X100G                    
51100000100CX             000000007130003111  BATATA PALHA TRADICIONAL 20X105G                  
51100000100FD             000000007130000037  FARINHA MANDIOCA 24X500G                          
51100000100CX             000000007130002933  GOMA DE TAPIOCA 20X500G                           
51100000100FD             000000007130000061  POLVILHO AZEDO 12X500G                            
51100000100FD             000000007130000049  SAGU DE MANDIOCA 12X500G                          
51100000100FD             000000007130000063  POLVILHO DOCE 12X500G                             
51100000100FD             000000007130000064  TAPIOCA 12X500G                                   
51100000100FD             000000007130000139  MISTURA PARA EMPANAR 12X300G                      
51100000100FD             000000007130000042  FARINHA DE ROSCA 24X500G                          
51100000100FD             000000007130000075  TRIGO KIBE 12X500G                                
51100000100FD             000000007130000018  FUBA PRE COZIDO FD 24X500G                        
51100000100FD             000000007130000045  FUBA MIMOSO 24X500G                               
51100000100FD             000000007130000039  FARINHA MILHO AMARELA 12X500G                     
51100000100FD             000000007130000687  KIMILHO FLOCAO FD 12X500G                         
51100000100FD             000000007130000019  FUBA PRE COZIDO FD 12X1KG                         
51100000100FD             000000007130000051  GIRASSOL TORI 12X500G                             
51100000100FD             000000007130000060  PAINCO TORI 12X500G                               
51100000100CX             000000007130000214  AMENDOIM DESC SALGADO 12X150G                     
51100000100CX             000000007130000215  AMENDOIM DESC TEMPERADO 12X150G                   
51100000100CX             000000007130001131  AMENDOIM COM MEL 12X150G                          
51100000100CX             000000007130001132  CASTANHA DE CAJU CX 12X100G                       
51100000100CX             000000007130001534  AMENDOIM DESC SALGADO 12X500G                     
51100000100CX             000000007130000217  AMENDOIM JAPONES 12X150G                          
51100000100CX             000000007130000517  AMENDOIM JAPONES 12X500GR                         
51100000100CX             000000007130002307  OVINHO DE AMENDOIM 25X90G                         
503NK MERCADO LTDA ME                                41283000000123120320410117                  R NOSSA SEN IMACULADA CONCEICAO,150               Empresarial Colina                 OSASCO                             06190100 3534401  SP                                                  1
5051  00013998706042021DIVERSOS       VOLUME         BR0505 123C06042021          N0N0000  N                                                                                                                006042021000000000000000000000000035210413143802000100550010001399871689330448
5060000470000006205800005360400000000000000000000NN000000000000000000000000279471000000000000000000000000000000000000000000000000000000000000000000000000000000000000000000000000000000000000000000000000000000000000000000000000000000000000000000000000000000000000000000000000000000000000000000000000000000000000000000
5070000470000006205800000000000000000000000000000003421000000000000000000000000000000000000000000000000000000000000000000000000000000000000000000000000000000000000000000000000000000000000000000000000000000000000000000000000002000000000000000000000000000000000000000000000000000000000000000000000000000000000000000000000
51100000100FD             000000007130015425  BICARBONATO 24X30G                                
51100000100CX             000000007130015475  BICARBONAT.DE SODIO 24X80G                        
51100000100CX             000000007130015407  CANELA EM PO 24X50G                               
51100000100FD             000000007130015429  CANELA EM CASCA 24X8G                             
51100000100FD             000000007130015427  CANELA EM PO 24X8G                                
51100000100FD             000000007130015429  CANELA EM CASCA 24X8G                             
51100000200CX             000000007130015410  COLORIFICO 24X80G.                                
51100000100FD             000000007130015420  COLORIFICO 24X20G                                 
51100000100FD             000000007130015640  COLORIFICO 24X200 G                               
51100000100FD             000000007130015423  COMINHO EM PO 24X8G                               
51100000100FD             000000007130015428  CRAVO DA INDIA 24X8G                              
51100000100CX             000000007130015404  ERVA DOCE 24X8G                                   
51100000100FD             000000007130015430  FOLHA DE LOURO 24X4G                              
51100000100FD             000000007130015610  MANJERICAO DESIDRATADO 24X07G                     
51100000100FD             000000007130015431  NOZ MOSCADA 24X8G                                 
51100000200CX             000000007130015406  OREGANO 24X10G                                    
51100000200FD             000000007130015426  OREGANO 24X3G                                     
51100000200FD             000000007130015641  OREGANO 24X15G                                    
51100000100CX             000000007130001577  GENGIBRE MOIDO 24X15G                             
51100000100FD             000000007130001578  TOMILHO 24X10G                                    
51100000100FD             000000007130001587  COENTRO EM PO 24X10G                              
51100000100FD             000000007130001589  PAPRICA DOCE 24X12G                               
51100000100CX             000000007130015950  TEMPERO BAIANO KITAN CX 24X40G                    
51100000100CX             000000007130002649  CHIMICHURRI 24X12G                                
51100000100CX             000000007130015001  ADOBO TEMP CHURRASCO 24X12G                       
51100000100CX             000000007130015035  ACAFRAO DA TERRA 24X50G                           
51100000100FD             000000007130015608  ALECRIM DESIDRATADO 24X6G                         
51100000100CX             000000007130015477  CURRY 24X50G                                      
51100000100CX             000000007130015463  SALSA DESIDRATADA 24X8G                           
51100000100CX             000000007130015476  CAMOMILA 24X10G                                   
51100000100FD             000000007130015421  PIMENTA REINO PRETA 24X15G                        
51100000100FD             000000007130015422  PIMENTA E COMINHO 24X15G                          
51100000100FD             000000007130015613  PIMENTA CALABRESA EM FLOCOS 24X13G                
51100000100CX             000000007130000615  MAIS SABOR CARNES 48X60G                          
51100000100CX             000000007130001188  MAIS SABOR NORDESTINO 24X60G                      
51100000100CX             000000007130001345  MAIS SABOR GAUCHO 24X60G                          
51100000100CX             000000007130002138  MAIS SABOR SALADA 48X60G                          
51100000100CX             000000007130015950  TEMPERO BAIANO KITAN CX 24X40G                    
51100000100CX             000000007130000556  TEMPERO COMPLETO SEM PIMENTA 12X1KG               
51100000100CX             000000007130015642  TOQUE DE CHEF AMACIANTE 24X120                    
51100000100CX             000000007130015643  TOQUE CHEF AVES 24X120G                           
51100000100CX             000000007130015644  TOQUE CHEF GRELHADOS 24X120G                      
51100000100CX             000000007130000382  CREME DE CEBOLA 12X65G                            
503ORLANDO KIBE & CIA LTDA                           72906027000159111778649111                  R MAURO ARAUJO RIBEIRO,94                         Empresarial Colina                 SAO PAULO                          05182000 3550308  SP                                                  1
5051  00013998806042021DIVERSOS       VOLUME         BR0505 123C06042021          N0N0000  N                                                                                                                006042021000000000000000000000000035210413143802000100550010001399881613040209
5060000360000020528800018928800000000000000000000NN000000000000000000000000238638000000000000000000000000000000000000000000000000000000000000000000000000000000000000000000000000000000000000000000000000000000000000000000000000000000000000000000000000000000000000000000000000000000000000000000000000000000000000000000
5070000360000020528800000000000000000000000000000009004000000000000000000000000000000000000000000000000000000000000000000000000000000000000000000000000000000000000000000000000000000000000000000000000000000000000000000000000002000000000000000000000000000000000000000000000000000000000000000000000000000000000000000000000
51100000300CX             000000007130000214  AMENDOIM DESC SALGADO 12X150G                     
51100000200CX             000000007130000517  AMENDOIM JAPONES 12X500GR                         
51100000100FD             000000007130000011  CANJICA AMARELA MUNGUZA 12X500G                   
51100000200CX             000000007130000842  FARINHA MANDIOCA GROSSA 12X1KG                    
51100000400FD             000000007130000039  FARINHA MILHO AMARELA 12X500G                     
51100000200CX             000000007130003005  FAROFA PALHA 12X200G                              
51100000200FD             000000007130000045  FUBA MIMOSO 24X500G                               
51100000100CX             000000007130000249  GLICOSE YOKI BISNAGA 12X350G                      
51100000200FD             000000007130000087  FARINHA MILHO KIMILHO 24X500G                     
51100000200FD             000000007130000055  LENTILHA YOKI 12X500G                             
51100000100CX             000000007130001345  MAIS SABOR GAUCHO 24X60G                          
51100000200CX             000000007130000796  PACOCA ROLHA 12X352G                              
51100000100CX             000000007130000981  PO SORVETE ABACAXI 12X150G                        
51100000100CX             000000007130000993  PO SORVETE CREME 12X150G                          
51100000100CX             000000007130000072  POPCORN MICRO BACON 36X100G                       
51100000200CX             000000007130000220  POPCORN MICRO COM SAL 36X100G                     
51100000200CX             000000007130000016  POPCORN MICRO MANTEIGA 36X100G                    
51100000100CX             000000007130002972  POPCORN MICRO MANTEIGA 36X50G                     
51100000100CX             000000007130000062  POPCORN MICRO NATURAL 36X100G                     
51100000100CX             000000007130001755  POPMICRO COBERTURA CHOCOLATE 30X160G              
51100000100FD             000000007130000845  POPMICRO MANTEIGA CINEMA 36X100G                  
51100000100CX             000000007130000627  POPMICRO TOQUE CHEF 36X100G                       
503VINHAIS COMERCIO IMPORTACAO E EXPORTACAO DE ALIMEN55159172000285143297450113                  R JACOFER,321                                     Empresarial Colina                 SAO PAULO                          02712070 3550308  SP                                                  1
5051  00013998906042021DIVERSOS       VOLUME         BR0505 123C06042021          N0N0000  N                                                                                                                006042021000000000000000000000000035210413143802000100550010001399891222163318
5060000270000023933900022530000000000000000000000NN000000000000000000000000218537000000000000000000000000000000000000000000000000000000000000000000000000000000000000000000000000000000000000000000000000000000000000000000000000000000000000000000000000000000000000000000000000000000000000000000000000000000000000000000
5070000270000023933900000000000000000000000000000010498000000000000000000000000000000000000000000000000000000000000000000000000000000000000000000000000000000000000000000000000000000000000000000000000000000000000000000000000002000000000000000000000000000000000000000000000000000000000000000000000000000000000000000000000
51100001000CX             000000007130000249  GLICOSE YOKI BISNAGA 12X350G                      
51100000500FD             000000007130003026  FAROFA MANDIOCA TEMPERADA 12X1KG                  
51100000800FD             000000007130000110  FARINHA DE MANDIOCA 12X1KG                        
51100000300CX             000000007130006211  PACOQUINHA ROLHA 6 X1250G                         
51100000100CX             000000007130002213  PE DE MOLEQUE 6X800G                              
503MINORU INTERLAGOS ALIMENTOS LTDA                  11028764000292141219249117                  R IRMA EMERENCIANA,908                            Empresarial Colina                 SAO PAULO                          02278000 3550308  SP                                                  1
5051  00013999006042021DIVERSOS       VOLUME         BR0505 123C06042021          N0N0000  N                                                                                                                006042021000000000000000000000000035210413143802000100550010001399901611615946
5060000320000020103400019142000000000000000000000NN000000000000000000000000209362000000000000000000000000000000000000000000000000000000000000000000000000000000000000000000000000000000000000000000000000000000000000000000000000000000000000000000000000000000000000000000000000000000000000000000000000000000000000000000
5070000320000020103400000000000000000000000000000008818000000000000000000000000000000000000000000000000000000000000000000000000000000000000000000000000000000000000000000000000000000000000000000000000000000000000000000000000002000000000000000000000000000000000000000000000000000000000000000000000000000000000000000000000
51100000100CX             000000007130000016  POPCORN MICRO MANTEIGA 36X100G                    
51100000100CX             000000007130000627  POPMICRO TOQUE CHEF 36X100G                       
51100000100CX             000000007130000220  POPCORN MICRO COM SAL 36X100G                     
51100000200FD             000000007130000029  CANJICA CRISTAL 12X500G                           
51100000100FD             000000007130000031  CANJIQUINHA 12X500G                               
51100000100FD             000000007130000055  LENTILHA YOKI 12X500G                             
51100000200FD             000000007130000053  GRAO DE BICO 12X500G                              
51100000100FD             000000007130000036  ERVILHA PARTIDA 12X500G                           
51100000100FD             000000007130000047  FEIJAO BRANCO 12X500G                             
51100000100CX             000000007130003113  BATATA PALHA TRADICIONAL 24X70G                   
51100000300CX             000000007130003111  BATATA PALHA TRADICIONAL 20X105G                  
51100000100CX             000000007130003112  BATATA PALHA EXTRAFINA 20X100G                    
51100000100CX             000000007130002899  FAROFA COM PEDACOS DE CEBOLA12X200G               
51100000100CX             000000007130003005  FAROFA PALHA 12X200G                              
51100000100CX             000000007130000007  MISTURA PAO DE QUEIJO YOKI 30X250G                
51100000500CX             000000007130000100  FAROFA MANDIOCA TEMPERADA 24X500G                 
51100000100FD             000000007130000063  POLVILHO DOCE 12X500G                             
51100000300FD             000000007130000045  FUBA MIMOSO 24X500G                               
51100000100FD             000000007130000060  PAINCO TORI 12X500G                               
51100000300CX             000000007130000382  CREME DE CEBOLA 12X65G                            
503MOTA 3 SUPERMERCADOS S/A                          58293143000119111928933111                  AV ROLAND GARROS,2364                             Empresarial Colina                 SAO PAULO                          02235001 3550308  SP                                                  1
5051  00013999106042021DIVERSOS       VOLUME         BR0505 123C06042021          N0N0000  N                                                                                                                006042021000000000000000000000000035210413143802000100550010001399911930654873
5060000420000023271700022039100000000000000000000NN000000000000000000000000262307000000000000000000000000000000000000000000000000000000000000000000000000000000000000000000000000000000000000000000000000000000000000000000000000000000000000000000000000000000000000000000000000000000000000000000000000000000000000000000
5070000420000023271700000000000000000000000000000010208000000000000000000000000000000000000000000000000000000000000000000000000000000000000000000000000000000000000000000000000000000000000000000000000000000000000000000000000002000000000000000000000000000000000000000000000000000000000000000000000000000000000000000000000
51100000400CX             000000007130000100  FAROFA MANDIOCA TEMPERADA 24X500G                 
51100000200FD             000000007130001160  AMENDOIM 12X500G                                  
51100000100CX             000000007130000216  AMENDOIM DOCE PRALINE 12X150G                     
51100000100CX             000000007130002833  AVEIA FLOCOS FINOS YOKI CX 12X170G                
51100000100CX             000000007130002834  AVEIA FLOCOS YOKI CX 12X170G                      
51100000200CX             000000007130003111  BATATA PALHA TRADICIONAL 20X105G                  
51100000500CX             000000007130003112  BATATA PALHA EXTRAFINA 20X100G                    
51100000100CX             000000007130015475  BICARBONAT.DE SODIO 24X80G                        
51100000100CX             000000007130001236  CALDO DE BACON KIT 10X57G                         
51100000100CX             000000007130002824  CALDO PO DE GALINHA 24X37,5G                      
51100000100FD             000000007130015428  CRAVO DA INDIA 24X8G                              
